{
  "_format": "hh-sol-artifact-1",
  "contractName": "MiningSimulation",
  "sourceName": "contracts/MiningSimulation.sol",
  "abi": [
    {
      "anonymous": false,
      "inputs": [
        {
          "indexed": false,
          "internalType": "uint256",
          "name": "blockNumber",
          "type": "uint256"
        },
        {
          "indexed": false,
          "internalType": "address",
          "name": "miner",
          "type": "address"
        },
        {
          "indexed": false,
          "internalType": "uint256",
          "name": "reward",
          "type": "uint256"
        }
      ],
      "name": "BlockMined",
      "type": "event"
    },
    {
      "inputs": [],
      "name": "getMinedBlocks",
      "outputs": [
        {
          "components": [
            {
              "internalType": "uint256",
              "name": "blockNumber",
              "type": "uint256"
            },
            {
              "internalType": "address",
              "name": "miner",
              "type": "address"
            },
            {
              "internalType": "uint256",
              "name": "reward",
              "type": "uint256"
            }
          ],
          "internalType": "struct MiningSimulation.BlockData[]",
          "name": "",
          "type": "tuple[]"
        }
      ],
      "stateMutability": "view",
      "type": "function"
    },
    {
      "inputs": [
        {
          "internalType": "uint256",
          "name": "nonce",
          "type": "uint256"
        },
        {
          "internalType": "bytes32",
          "name": "hash",
          "type": "bytes32"
        }
      ],
      "name": "mineBlock",
      "outputs": [],
      "stateMutability": "nonpayable",
      "type": "function"
    },
    {
      "inputs": [
        {
          "internalType": "uint256",
          "name": "",
          "type": "uint256"
        }
      ],
      "name": "minedBlocks",
      "outputs": [
        {
          "internalType": "uint256",
          "name": "blockNumber",
          "type": "uint256"
        },
        {
          "internalType": "address",
          "name": "miner",
          "type": "address"
        },
        {
          "internalType": "uint256",
          "name": "reward",
          "type": "uint256"
        }
      ],
      "stateMutability": "view",
      "type": "function"
    },
    {
      "inputs": [],
      "name": "rewardPerBlock",
      "outputs": [
        {
          "internalType": "uint256",
          "name": "",
          "type": "uint256"
        }
      ],
      "stateMutability": "view",
      "type": "function"
    },
    {
      "inputs": [],
      "name": "totalMined",
      "outputs": [
        {
          "internalType": "uint256",
          "name": "",
          "type": "uint256"
        }
      ],
      "stateMutability": "view",
      "type": "function"
    }
  ],
  "bytecode": "0x6080604052670de0b6b3a7640000600255348015601b57600080fd5b506107b08061002b6000396000f3fe608060405234801561001057600080fd5b50600436106100575760003560e01c80631aa1f0131461005c5780635556db65146100785780638ae39cac14610096578063a7f2e5c7146100b4578063ecee337c146100e6575b600080fd5b61007660048036038101906100719190610420565b610104565b005b610080610280565b60405161008d919061046f565b60405180910390f35b61009e610286565b6040516100ab919061046f565b60405180910390f35b6100ce60048036038101906100c9919061048a565b61028c565b6040516100dd939291906104f8565b60405180910390f35b6100ee6102e6565b6040516100fb919061063e565b60405180910390f35b7e010000000000000000000000000000000000000000000000000000000000008160001c10610168576040517f08c379a000000000000000000000000000000000000000000000000000000000815260040161015f906106e3565b60405180910390fd5b6000604051806060016040528060015481526020013373ffffffffffffffffffffffffffffffffffffffff16815260200160025481525090806001815401808255809150506001900390600052602060002090600302016000909190919091506000820151816000015560208201518160010160006101000a81548173ffffffffffffffffffffffffffffffffffffffff021916908373ffffffffffffffffffffffffffffffffffffffff1602179055506040820151816002015550506001600081548092919061023890610732565b91905055507f277311c58ef8f52ed9227bfe477a3690aa406b220e1ea1e0e59ca8fb626a0d2a60015433600254604051610274939291906104f8565b60405180910390a15050565b60015481565b60025481565b6000818154811061029c57600080fd5b90600052602060002090600302016000915090508060000154908060010160009054906101000a900473ffffffffffffffffffffffffffffffffffffffff16908060020154905083565b60606000805480602002602001604051908101604052809291908181526020016000905b828210156103a65783829060005260206000209060030201604051806060016040529081600082015481526020016001820160009054906101000a900473ffffffffffffffffffffffffffffffffffffffff1673ffffffffffffffffffffffffffffffffffffffff1673ffffffffffffffffffffffffffffffffffffffff1681526020016002820154815250508152602001906001019061030a565b50505050905090565b600080fd5b6000819050919050565b6103c7816103b4565b81146103d257600080fd5b50565b6000813590506103e4816103be565b92915050565b6000819050919050565b6103fd816103ea565b811461040857600080fd5b50565b60008135905061041a816103f4565b92915050565b60008060408385031215610437576104366103af565b5b6000610445858286016103d5565b92505060206104568582860161040b565b9150509250929050565b610469816103b4565b82525050565b60006020820190506104846000830184610460565b92915050565b6000602082840312156104a05761049f6103af565b5b60006104ae848285016103d5565b91505092915050565b600073ffffffffffffffffffffffffffffffffffffffff82169050919050565b60006104e2826104b7565b9050919050565b6104f2816104d7565b82525050565b600060608201905061050d6000830186610460565b61051a60208301856104e9565b6105276040830184610460565b949350505050565b600081519050919050565b600082825260208201905092915050565b6000819050602082019050919050565b610564816103b4565b82525050565b610573816104d7565b82525050565b60608201600082015161058f600085018261055b565b5060208201516105a2602085018261056a565b5060408201516105b5604085018261055b565b50505050565b60006105c78383610579565b60608301905092915050565b6000602082019050919050565b60006105eb8261052f565b6105f5818561053a565b93506106008361054b565b8060005b8381101561063157815161061888826105bb565b9750610623836105d3565b925050600181019050610604565b5085935050505092915050565b6000602082019050818103600083015261065881846105e0565b905092915050565b600082825260208201905092915050565b7f496e76616c696420686173683a206e6f7420656e6f756768206469666669637560008201527f6c74790000000000000000000000000000000000000000000000000000000000602082015250565b60006106cd602383610660565b91506106d882610671565b604082019050919050565b600060208201905081810360008301526106fc816106c0565b9050919050565b7f4e487b7100000000000000000000000000000000000000000000000000000000600052601160045260246000fd5b600061073d826103b4565b91507fffffffffffffffffffffffffffffffffffffffffffffffffffffffffffffffff820361076f5761076e610703565b5b60018201905091905056fea2646970667358221220dcbd9b30fe3ce81557d80edbc98dae3a9caf987217d1db5d262f88a86bd61b2664736f6c634300081c0033",
  "linkReferences": {},
  "deployedLinkReferences": {}
}